{
  "_format": "hh-sol-artifact-1",
  "contractName": "ERC20",
  "sourceName": "contracts/ERC20.sol",
  "abi": [
    {
      "inputs": [
        {
          "internalType": "string",
          "name": "_name",
          "type": "string"
        },
        {
          "internalType": "string",
          "name": "_symbol",
          "type": "string"
        },
        {
          "internalType": "uint8",
          "name": "_decimals",
          "type": "uint8"
        }
      ],
      "stateMutability": "nonpayable",
      "type": "constructor"
    },
    {
      "anonymous": false,
      "inputs": [
        {
          "indexed": true,
          "internalType": "address",
          "name": "owner",
          "type": "address"
        },
        {
          "indexed": true,
          "internalType": "address",
          "name": "spender",
          "type": "address"
        },
        {
          "indexed": false,
          "internalType": "uint256",
          "name": "value",
          "type": "uint256"
        }
      ],
      "name": "Approval",
      "type": "event"
    },
    {
      "anonymous": false,
      "inputs": [
        {
          "indexed": true,
          "internalType": "address",
          "name": "previousOwner",
          "type": "address"
        },
        {
          "indexed": true,
          "internalType": "address",
          "name": "newOwner",
          "type": "address"
        }
      ],
      "name": "OwnershipTransferred",
      "type": "event"
    },
    {
      "anonymous": false,
      "inputs": [
        {
          "indexed": true,
          "internalType": "address",
          "name": "from",
          "type": "address"
        },
        {
          "indexed": true,
          "internalType": "address",
          "name": "to",
          "type": "address"
        },
        {
          "indexed": false,
          "internalType": "uint256",
          "name": "value",
          "type": "uint256"
        }
      ],
      "name": "Transfer",
      "type": "event"
    },
    {
      "inputs": [
        {
          "internalType": "address",
          "name": "",
          "type": "address"
        },
        {
          "internalType": "address",
          "name": "",
          "type": "address"
        }
      ],
      "name": "allowance",
      "outputs": [
        {
          "internalType": "uint256",
          "name": "",
          "type": "uint256"
        }
      ],
      "stateMutability": "view",
      "type": "function"
    },
    {
      "inputs": [
        {
          "internalType": "address",
          "name": "spender",
          "type": "address"
        },
        {
          "internalType": "uint256",
          "name": "amount",
          "type": "uint256"
        }
      ],
      "name": "approve",
      "outputs": [
        {
          "internalType": "bool",
          "name": "",
          "type": "bool"
        }
      ],
      "stateMutability": "nonpayable",
      "type": "function"
    },
    {
      "inputs": [
        {
          "internalType": "address",
          "name": "",
          "type": "address"
        }
      ],
      "name": "balanceOf",
      "outputs": [
        {
          "internalType": "uint256",
          "name": "",
          "type": "uint256"
        }
      ],
      "stateMutability": "view",
      "type": "function"
    },
    {
      "inputs": [
        {
          "internalType": "address",
          "name": "from",
          "type": "address"
        },
        {
          "internalType": "uint256",
          "name": "amount",
          "type": "uint256"
        }
      ],
      "name": "burn",
      "outputs": [],
      "stateMutability": "nonpayable",
      "type": "function"
    },
    {
      "inputs": [],
      "name": "decimals",
      "outputs": [
        {
          "internalType": "uint8",
          "name": "",
          "type": "uint8"
        }
      ],
      "stateMutability": "view",
      "type": "function"
    },
    {
      "inputs": [
        {
          "internalType": "address",
          "name": "to",
          "type": "address"
        },
        {
          "internalType": "uint256",
          "name": "amount",
          "type": "uint256"
        }
      ],
      "name": "mint",
      "outputs": [],
      "stateMutability": "nonpayable",
      "type": "function"
    },
    {
      "inputs": [],
      "name": "name",
      "outputs": [
        {
          "internalType": "string",
          "name": "",
          "type": "string"
        }
      ],
      "stateMutability": "view",
      "type": "function"
    },
    {
      "inputs": [],
      "name": "owner",
      "outputs": [
        {
          "internalType": "address",
          "name": "",
          "type": "address"
        }
      ],
      "stateMutability": "view",
      "type": "function"
    },
    {
      "inputs": [],
      "name": "symbol",
      "outputs": [
        {
          "internalType": "string",
          "name": "",
          "type": "string"
        }
      ],
      "stateMutability": "view",
      "type": "function"
    },
    {
      "inputs": [],
      "name": "totalSupply",
      "outputs": [
        {
          "internalType": "uint256",
          "name": "",
          "type": "uint256"
        }
      ],
      "stateMutability": "view",
      "type": "function"
    },
    {
      "inputs": [
        {
          "internalType": "address",
          "name": "recipient",
          "type": "address"
        },
        {
          "internalType": "uint256",
          "name": "amount",
          "type": "uint256"
        }
      ],
      "name": "transfer",
      "outputs": [
        {
          "internalType": "bool",
          "name": "",
          "type": "bool"
        }
      ],
      "stateMutability": "nonpayable",
      "type": "function"
    },
    {
      "inputs": [
        {
          "internalType": "address",
          "name": "sender",
          "type": "address"
        },
        {
          "internalType": "address",
          "name": "recipient",
          "type": "address"
        },
        {
          "internalType": "uint256",
          "name": "amount",
          "type": "uint256"
        }
      ],
      "name": "transferFrom",
      "outputs": [
        {
          "internalType": "bool",
          "name": "",
          "type": "bool"
        }
      ],
      "stateMutability": "nonpayable",
      "type": "function"
    },
    {
      "inputs": [
        {
          "internalType": "address",
          "name": "newOwner",
          "type": "address"
        }
      ],
      "name": "transferOwnership",
      "outputs": [],
      "stateMutability": "nonpayable",
      "type": "function"
    }
  ],
  "bytecode": "0x6080604052633b9aca005f5534801562000017575f80fd5b50604051620016e5380380620016e583398181016040528101906200003d9190620002c7565b5f5460015f3373ffffffffffffffffffffffffffffffffffffffff1673ffffffffffffffffffffffffffffffffffffffff1681526020019081526020015f2081905550826004908162000091919062000595565b508160059081620000a3919062000595565b508060065f6101000a81548160ff021916908360ff1602179055503360035f6101000a81548173ffffffffffffffffffffffffffffffffffffffff021916908373ffffffffffffffffffffffffffffffffffffffff16021790555050505062000679565b5f604051905090565b5f80fd5b5f80fd5b5f80fd5b5f80fd5b5f601f19601f8301169050919050565b7f4e487b71000000000000000000000000000000000000000000000000000000005f52604160045260245ffd5b620001688262000120565b810181811067ffffffffffffffff821117156200018a576200018962000130565b5b80604052505050565b5f6200019e62000107565b9050620001ac82826200015d565b919050565b5f67ffffffffffffffff821115620001ce57620001cd62000130565b5b620001d98262000120565b9050602081019050919050565b5f5b8381101562000205578082015181840152602081019050620001e8565b5f8484015250505050565b5f620002266200022084620001b1565b62000193565b9050828152602081018484840111156200024557620002446200011c565b5b62000252848285620001e6565b509392505050565b5f82601f83011262000271576200027062000118565b5b81516200028384826020860162000210565b91505092915050565b5f60ff82169050919050565b620002a3816200028c565b8114620002ae575f80fd5b50565b5f81519050620002c18162000298565b92915050565b5f805f60608486031215620002e157620002e062000110565b5b5f84015167ffffffffffffffff81111562000301576200030062000114565b5b6200030f868287016200025a565b935050602084015167ffffffffffffffff81111562000333576200033262000114565b5b62000341868287016200025a565b92505060406200035486828701620002b1565b9150509250925092565b5f81519050919050565b7f4e487b71000000000000000000000000000000000000000000000000000000005f52602260045260245ffd5b5f6002820490506001821680620003ad57607f821691505b602082108103620003c357620003c262000368565b5b50919050565b5f819050815f5260205f209050919050565b5f6020601f8301049050919050565b5f82821b905092915050565b5f60088302620004277fffffffffffffffffffffffffffffffffffffffffffffffffffffffffffffffff82620003ea565b620004338683620003ea565b95508019841693508086168417925050509392505050565b5f819050919050565b5f819050919050565b5f6200047d6200047762000471846200044b565b62000454565b6200044b565b9050919050565b5f819050919050565b62000498836200045d565b620004b0620004a78262000484565b848454620003f6565b825550505050565b5f90565b620004c6620004b8565b620004d38184846200048d565b505050565b5b81811015620004fa57620004ee5f82620004bc565b600181019050620004d9565b5050565b601f82111562000549576200051381620003c9565b6200051e84620003db565b810160208510156200052e578190505b620005466200053d85620003db565b830182620004d8565b50505b505050565b5f82821c905092915050565b5f6200056b5f19846008026200054e565b1980831691505092915050565b5f6200058583836200055a565b9150826002028217905092915050565b620005a0826200035e565b67ffffffffffffffff811115620005bc57620005bb62000130565b5b620005c8825462000395565b620005d5828285620004fe565b5f60209050601f8311600181146200060b575f8415620005f6578287015190505b62000602858262000578565b86555062000671565b601f1984166200061b86620003c9565b5f5b8281101562000644578489015182556001820191506020850194506020810190506200061d565b8683101562000664578489015162000660601f8916826200055a565b8355505b6001600288020188555050505b505050505050565b61105e80620006875f395ff3fe608060405234801561000f575f80fd5b50600436106100cd575f3560e01c806370a082311161008a5780639dc29fac116100645780639dc29fac14610213578063a9059cbb1461022f578063dd62ed3e1461025f578063f2fde38b1461028f576100cd565b806370a08231146101a75780638da5cb5b146101d757806395d89b41146101f5576100cd565b806306fdde03146100d1578063095ea7b3146100ef57806318160ddd1461011f57806323b872dd1461013d578063313ce5671461016d57806340c10f191461018b575b5f80fd5b6100d96102ab565b6040516100e69190610be3565b60405180910390f35b61010960048036038101906101049190610c94565b610337565b6040516101169190610cec565b60405180910390f35b610127610424565b6040516101349190610d14565b60405180910390f35b61015760048036038101906101529190610d2d565b610429565b6040516101649190610cec565b60405180910390f35b6101756105ce565b6040516101829190610d98565b60405180910390f35b6101a560048036038101906101a09190610c94565b6105e0565b005b6101c160048036038101906101bc9190610db1565b6105ee565b6040516101ce9190610d14565b60405180910390f35b6101df610603565b6040516101ec9190610deb565b60405180910390f35b6101fd610628565b60405161020a9190610be3565b60405180910390f35b61022d60048036038101906102289190610c94565b6106b4565b005b61024960048036038101906102449190610c94565b6106c2565b6040516102569190610cec565b60405180910390f35b61027960048036038101906102749190610e04565b6107d8565b6040516102869190610d14565b60405180910390f35b6102a960048036038101906102a49190610db1565b6107f8565b005b600480546102b890610e6f565b80601f01602080910402602001604051908101604052809291908181526020018280546102e490610e6f565b801561032f5780601f106103065761010080835404028352916020019161032f565b820191905f5260205f20905b81548152906001019060200180831161031257829003601f168201915b505050505081565b5f8160025f3373ffffffffffffffffffffffffffffffffffffffff1673ffffffffffffffffffffffffffffffffffffffff1681526020019081526020015f205f8573ffffffffffffffffffffffffffffffffffffffff1673ffffffffffffffffffffffffffffffffffffffff1681526020019081526020015f20819055508273ffffffffffffffffffffffffffffffffffffffff163373ffffffffffffffffffffffffffffffffffffffff167f8c5be1e5ebec7d5bd14f71427d1e84f3dd0314c0f7b2291e5b200ac8c7c3b925846040516104129190610d14565b60405180910390a36001905092915050565b5f5481565b5f8160025f8673ffffffffffffffffffffffffffffffffffffffff1673ffffffffffffffffffffffffffffffffffffffff1681526020019081526020015f205f3373ffffffffffffffffffffffffffffffffffffffff1673ffffffffffffffffffffffffffffffffffffffff1681526020019081526020015f205f8282546104b19190610ecc565b925050819055508160015f8673ffffffffffffffffffffffffffffffffffffffff1673ffffffffffffffffffffffffffffffffffffffff1681526020019081526020015f205f8282546105049190610ecc565b925050819055508160015f8573ffffffffffffffffffffffffffffffffffffffff1673ffffffffffffffffffffffffffffffffffffffff1681526020019081526020015f205f8282546105579190610eff565b925050819055508273ffffffffffffffffffffffffffffffffffffffff168473ffffffffffffffffffffffffffffffffffffffff167fddf252ad1be2c89b69c2b068fc378daa952ba7f163c4a11628f55a4df523b3ef846040516105bb9190610d14565b60405180910390a3600190509392505050565b60065f9054906101000a900460ff1681565b6105ea82826109b3565b5050565b6001602052805f5260405f205f915090505481565b60035f9054906101000a900473ffffffffffffffffffffffffffffffffffffffff1681565b6005805461063590610e6f565b80601f016020809104026020016040519081016040528092919081815260200182805461066190610e6f565b80156106ac5780601f10610683576101008083540402835291602001916106ac565b820191905f5260205f20905b81548152906001019060200180831161068f57829003601f168201915b505050505081565b6106be8282610a86565b5050565b5f8160015f3373ffffffffffffffffffffffffffffffffffffffff1673ffffffffffffffffffffffffffffffffffffffff1681526020019081526020015f205f82825461070f9190610ecc565b925050819055508160015f8573ffffffffffffffffffffffffffffffffffffffff1673ffffffffffffffffffffffffffffffffffffffff1681526020019081526020015f205f8282546107629190610eff565b925050819055508273ffffffffffffffffffffffffffffffffffffffff163373ffffffffffffffffffffffffffffffffffffffff167fddf252ad1be2c89b69c2b068fc378daa952ba7f163c4a11628f55a4df523b3ef846040516107c69190610d14565b60405180910390a36001905092915050565b6002602052815f5260405f20602052805f5260405f205f91509150505481565b60035f9054906101000a900473ffffffffffffffffffffffffffffffffffffffff1673ffffffffffffffffffffffffffffffffffffffff163373ffffffffffffffffffffffffffffffffffffffff1614610887576040517f08c379a000000000000000000000000000000000000000000000000000000000815260040161087e90610fa2565b60405180910390fd5b5f73ffffffffffffffffffffffffffffffffffffffff168173ffffffffffffffffffffffffffffffffffffffff16036108f5576040517f08c379a00000000000000000000000000000000000000000000000000000000081526004016108ec9061100a565b60405180910390fd5b8073ffffffffffffffffffffffffffffffffffffffff1660035f9054906101000a900473ffffffffffffffffffffffffffffffffffffffff1673ffffffffffffffffffffffffffffffffffffffff167f8be0079c531659141344cd1fd0a4f28419497f9722a3daafe3b4186f6b6457e060405160405180910390a38060035f6101000a81548173ffffffffffffffffffffffffffffffffffffffff021916908373ffffffffffffffffffffffffffffffffffffffff16021790555050565b8060015f8473ffffffffffffffffffffffffffffffffffffffff1673ffffffffffffffffffffffffffffffffffffffff1681526020019081526020015f205f8282546109ff9190610eff565b92505081905550805f80828254610a169190610eff565b925050819055508173ffffffffffffffffffffffffffffffffffffffff165f73ffffffffffffffffffffffffffffffffffffffff167fddf252ad1be2c89b69c2b068fc378daa952ba7f163c4a11628f55a4df523b3ef83604051610a7a9190610d14565b60405180910390a35050565b8060015f8473ffffffffffffffffffffffffffffffffffffffff1673ffffffffffffffffffffffffffffffffffffffff1681526020019081526020015f205f828254610ad29190610ecc565b92505081905550805f80828254610ae99190610ecc565b925050819055505f73ffffffffffffffffffffffffffffffffffffffff168273ffffffffffffffffffffffffffffffffffffffff167fddf252ad1be2c89b69c2b068fc378daa952ba7f163c4a11628f55a4df523b3ef83604051610b4d9190610d14565b60405180910390a35050565b5f81519050919050565b5f82825260208201905092915050565b5f5b83811015610b90578082015181840152602081019050610b75565b5f8484015250505050565b5f601f19601f8301169050919050565b5f610bb582610b59565b610bbf8185610b63565b9350610bcf818560208601610b73565b610bd881610b9b565b840191505092915050565b5f6020820190508181035f830152610bfb8184610bab565b905092915050565b5f80fd5b5f73ffffffffffffffffffffffffffffffffffffffff82169050919050565b5f610c3082610c07565b9050919050565b610c4081610c26565b8114610c4a575f80fd5b50565b5f81359050610c5b81610c37565b92915050565b5f819050919050565b610c7381610c61565b8114610c7d575f80fd5b50565b5f81359050610c8e81610c6a565b92915050565b5f8060408385031215610caa57610ca9610c03565b5b5f610cb785828601610c4d565b9250506020610cc885828601610c80565b9150509250929050565b5f8115159050919050565b610ce681610cd2565b82525050565b5f602082019050610cff5f830184610cdd565b92915050565b610d0e81610c61565b82525050565b5f602082019050610d275f830184610d05565b92915050565b5f805f60608486031215610d4457610d43610c03565b5b5f610d5186828701610c4d565b9350506020610d6286828701610c4d565b9250506040610d7386828701610c80565b9150509250925092565b5f60ff82169050919050565b610d9281610d7d565b82525050565b5f602082019050610dab5f830184610d89565b92915050565b5f60208284031215610dc657610dc5610c03565b5b5f610dd384828501610c4d565b91505092915050565b610de581610c26565b82525050565b5f602082019050610dfe5f830184610ddc565b92915050565b5f8060408385031215610e1a57610e19610c03565b5b5f610e2785828601610c4d565b9250506020610e3885828601610c4d565b9150509250929050565b7f4e487b71000000000000000000000000000000000000000000000000000000005f52602260045260245ffd5b5f6002820490506001821680610e8657607f821691505b602082108103610e9957610e98610e42565b5b50919050565b7f4e487b71000000000000000000000000000000000000000000000000000000005f52601160045260245ffd5b5f610ed682610c61565b9150610ee183610c61565b9250828203905081811115610ef957610ef8610e9f565b5b92915050565b5f610f0982610c61565b9150610f1483610c61565b9250828201905080821115610f2c57610f2b610e9f565b5b92915050565b7f4f6e6c7920746865206f776e65722063616e2063616c6c20746869732066756e5f8201527f6374696f6e000000000000000000000000000000000000000000000000000000602082015250565b5f610f8c602583610b63565b9150610f9782610f32565b604082019050919050565b5f6020820190508181035f830152610fb981610f80565b9050919050565b7f4e6577206f776e657220697320746865207a65726f20616464726573730000005f82015250565b5f610ff4601d83610b63565b9150610fff82610fc0565b602082019050919050565b5f6020820190508181035f83015261102181610fe8565b905091905056fea2646970667358221220b638ac84fe6ee6adfece61c73b497b53b615545a2e89b2f61487fc7d555e334064736f6c63430008180033",
  "linkReferences": {},
  "deployedLinkReferences": {}
}