{
  "_format": "hh-sol-artifact-1",
  "contractName": "ERC20",
  "sourceName": "contracts/ERC20.sol",
  "abi": [
    {
      "inputs": [
        {
          "internalType": "string",
          "name": "_name",
          "type": "string"
        },
        {
          "internalType": "string",
          "name": "_symbol",
          "type": "string"
        }
      ],
      "stateMutability": "nonpayable",
      "type": "constructor"
    },
    {
      "anonymous": false,
      "inputs": [
        {
          "indexed": true,
          "internalType": "address",
          "name": "owner",
          "type": "address"
        },
        {
          "indexed": true,
          "internalType": "address",
          "name": "spender",
          "type": "address"
        },
        {
          "indexed": false,
          "internalType": "uint256",
          "name": "value",
          "type": "uint256"
        }
      ],
      "name": "Approval",
      "type": "event"
    },
    {
      "anonymous": false,
      "inputs": [
        {
          "indexed": true,
          "internalType": "address",
          "name": "previousOwner",
          "type": "address"
        },
        {
          "indexed": true,
          "internalType": "address",
          "name": "newOwner",
          "type": "address"
        }
      ],
      "name": "OwnershipTransferred",
      "type": "event"
    },
    {
      "anonymous": false,
      "inputs": [
        {
          "indexed": true,
          "internalType": "address",
          "name": "from",
          "type": "address"
        },
        {
          "indexed": true,
          "internalType": "address",
          "name": "to",
          "type": "address"
        },
        {
          "indexed": false,
          "internalType": "uint256",
          "name": "value",
          "type": "uint256"
        }
      ],
      "name": "Transfer",
      "type": "event"
    },
    {
      "inputs": [
        {
          "internalType": "address",
          "name": "",
          "type": "address"
        },
        {
          "internalType": "address",
          "name": "",
          "type": "address"
        }
      ],
      "name": "allowance",
      "outputs": [
        {
          "internalType": "uint256",
          "name": "",
          "type": "uint256"
        }
      ],
      "stateMutability": "view",
      "type": "function"
    },
    {
      "inputs": [
        {
          "internalType": "address",
          "name": "spender",
          "type": "address"
        },
        {
          "internalType": "uint256",
          "name": "amount",
          "type": "uint256"
        }
      ],
      "name": "approve",
      "outputs": [
        {
          "internalType": "bool",
          "name": "",
          "type": "bool"
        }
      ],
      "stateMutability": "nonpayable",
      "type": "function"
    },
    {
      "inputs": [
        {
          "internalType": "address",
          "name": "",
          "type": "address"
        }
      ],
      "name": "balanceOf",
      "outputs": [
        {
          "internalType": "uint256",
          "name": "",
          "type": "uint256"
        }
      ],
      "stateMutability": "view",
      "type": "function"
    },
    {
      "inputs": [],
      "name": "decimals",
      "outputs": [
        {
          "internalType": "uint8",
          "name": "",
          "type": "uint8"
        }
      ],
      "stateMutability": "view",
      "type": "function"
    },
    {
      "inputs": [],
      "name": "name",
      "outputs": [
        {
          "internalType": "string",
          "name": "",
          "type": "string"
        }
      ],
      "stateMutability": "view",
      "type": "function"
    },
    {
      "inputs": [],
      "name": "owner",
      "outputs": [
        {
          "internalType": "address",
          "name": "",
          "type": "address"
        }
      ],
      "stateMutability": "view",
      "type": "function"
    },
    {
      "inputs": [],
      "name": "symbol",
      "outputs": [
        {
          "internalType": "string",
          "name": "",
          "type": "string"
        }
      ],
      "stateMutability": "view",
      "type": "function"
    },
    {
      "inputs": [],
      "name": "totalSupply",
      "outputs": [
        {
          "internalType": "uint256",
          "name": "",
          "type": "uint256"
        }
      ],
      "stateMutability": "view",
      "type": "function"
    },
    {
      "inputs": [
        {
          "internalType": "address",
          "name": "recipient",
          "type": "address"
        },
        {
          "internalType": "uint256",
          "name": "amount",
          "type": "uint256"
        }
      ],
      "name": "transfer",
      "outputs": [
        {
          "internalType": "bool",
          "name": "",
          "type": "bool"
        }
      ],
      "stateMutability": "nonpayable",
      "type": "function"
    },
    {
      "inputs": [
        {
          "internalType": "address",
          "name": "sender",
          "type": "address"
        },
        {
          "internalType": "address",
          "name": "recipient",
          "type": "address"
        },
        {
          "internalType": "uint256",
          "name": "amount",
          "type": "uint256"
        }
      ],
      "name": "transferFrom",
      "outputs": [
        {
          "internalType": "bool",
          "name": "",
          "type": "bool"
        }
      ],
      "stateMutability": "nonpayable",
      "type": "function"
    },
    {
      "inputs": [
        {
          "internalType": "address",
          "name": "newOwner",
          "type": "address"
        }
      ],
      "name": "transferOwnership",
      "outputs": [],
      "stateMutability": "nonpayable",
      "type": "function"
    }
  ],
  "bytecode": "0x60806040526b033b2e3c9fd0803ce80000005f55601260065f6101000a81548160ff021916908360ff1602179055503480156200003a575f80fd5b506040516200147e3803806200147e833981810160405281019062000060919062000294565b5f5460015f3373ffffffffffffffffffffffffffffffffffffffff1673ffffffffffffffffffffffffffffffffffffffff1681526020019081526020015f20819055508160049081620000b491906200054e565b508060059081620000c691906200054e565b503360035f6101000a81548173ffffffffffffffffffffffffffffffffffffffff021916908373ffffffffffffffffffffffffffffffffffffffff160217905550505062000632565b5f604051905090565b5f80fd5b5f80fd5b5f80fd5b5f80fd5b5f601f19601f8301169050919050565b7f4e487b71000000000000000000000000000000000000000000000000000000005f52604160045260245ffd5b620001708262000128565b810181811067ffffffffffffffff8211171562000192576200019162000138565b5b80604052505050565b5f620001a66200010f565b9050620001b4828262000165565b919050565b5f67ffffffffffffffff821115620001d657620001d562000138565b5b620001e18262000128565b9050602081019050919050565b5f5b838110156200020d578082015181840152602081019050620001f0565b5f8484015250505050565b5f6200022e6200022884620001b9565b6200019b565b9050828152602081018484840111156200024d576200024c62000124565b5b6200025a848285620001ee565b509392505050565b5f82601f83011262000279576200027862000120565b5b81516200028b84826020860162000218565b91505092915050565b5f8060408385031215620002ad57620002ac62000118565b5b5f83015167ffffffffffffffff811115620002cd57620002cc6200011c565b5b620002db8582860162000262565b925050602083015167ffffffffffffffff811115620002ff57620002fe6200011c565b5b6200030d8582860162000262565b9150509250929050565b5f81519050919050565b7f4e487b71000000000000000000000000000000000000000000000000000000005f52602260045260245ffd5b5f60028204905060018216806200036657607f821691505b6020821081036200037c576200037b62000321565b5b50919050565b5f819050815f5260205f209050919050565b5f6020601f8301049050919050565b5f82821b905092915050565b5f60088302620003e07fffffffffffffffffffffffffffffffffffffffffffffffffffffffffffffffff82620003a3565b620003ec8683620003a3565b95508019841693508086168417925050509392505050565b5f819050919050565b5f819050919050565b5f62000436620004306200042a8462000404565b6200040d565b62000404565b9050919050565b5f819050919050565b620004518362000416565b6200046962000460826200043d565b848454620003af565b825550505050565b5f90565b6200047f62000471565b6200048c81848462000446565b505050565b5b81811015620004b357620004a75f8262000475565b60018101905062000492565b5050565b601f8211156200050257620004cc8162000382565b620004d78462000394565b81016020851015620004e7578190505b620004ff620004f68562000394565b83018262000491565b50505b505050565b5f82821c905092915050565b5f620005245f198460080262000507565b1980831691505092915050565b5f6200053e838362000513565b9150826002028217905092915050565b620005598262000317565b67ffffffffffffffff81111562000575576200057462000138565b5b6200058182546200034e565b6200058e828285620004b7565b5f60209050601f831160018114620005c4575f8415620005af578287015190505b620005bb858262000531565b8655506200062a565b601f198416620005d48662000382565b5f5b82811015620005fd57848901518255600182019150602085019450602081019050620005d6565b868310156200061d578489015162000619601f89168262000513565b8355505b6001600288020188555050505b505050505050565b610e3e80620006405f395ff3fe608060405234801561000f575f80fd5b50600436106100a7575f3560e01c806370a082311161006f57806370a08231146101655780638da5cb5b1461019557806395d89b41146101b3578063a9059cbb146101d1578063dd62ed3e14610201578063f2fde38b14610231576100a7565b806306fdde03146100ab578063095ea7b3146100c957806318160ddd146100f957806323b872dd14610117578063313ce56714610147575b5f80fd5b6100b361024d565b6040516100c091906109c3565b60405180910390f35b6100e360048036038101906100de9190610a74565b6102d9565b6040516100f09190610acc565b60405180910390f35b6101016103c6565b60405161010e9190610af4565b60405180910390f35b610131600480360381019061012c9190610b0d565b6103cb565b60405161013e9190610acc565b60405180910390f35b61014f610570565b60405161015c9190610b78565b60405180910390f35b61017f600480360381019061017a9190610b91565b610582565b60405161018c9190610af4565b60405180910390f35b61019d610597565b6040516101aa9190610bcb565b60405180910390f35b6101bb6105bc565b6040516101c891906109c3565b60405180910390f35b6101eb60048036038101906101e69190610a74565b610648565b6040516101f89190610acc565b60405180910390f35b61021b60048036038101906102169190610be4565b61075e565b6040516102289190610af4565b60405180910390f35b61024b60048036038101906102469190610b91565b61077e565b005b6004805461025a90610c4f565b80601f016020809104026020016040519081016040528092919081815260200182805461028690610c4f565b80156102d15780601f106102a8576101008083540402835291602001916102d1565b820191905f5260205f20905b8154815290600101906020018083116102b457829003601f168201915b505050505081565b5f8160025f3373ffffffffffffffffffffffffffffffffffffffff1673ffffffffffffffffffffffffffffffffffffffff1681526020019081526020015f205f8573ffffffffffffffffffffffffffffffffffffffff1673ffffffffffffffffffffffffffffffffffffffff1681526020019081526020015f20819055508273ffffffffffffffffffffffffffffffffffffffff163373ffffffffffffffffffffffffffffffffffffffff167f8c5be1e5ebec7d5bd14f71427d1e84f3dd0314c0f7b2291e5b200ac8c7c3b925846040516103b49190610af4565b60405180910390a36001905092915050565b5f5481565b5f8160025f8673ffffffffffffffffffffffffffffffffffffffff1673ffffffffffffffffffffffffffffffffffffffff1681526020019081526020015f205f3373ffffffffffffffffffffffffffffffffffffffff1673ffffffffffffffffffffffffffffffffffffffff1681526020019081526020015f205f8282546104539190610cac565b925050819055508160015f8673ffffffffffffffffffffffffffffffffffffffff1673ffffffffffffffffffffffffffffffffffffffff1681526020019081526020015f205f8282546104a69190610cac565b925050819055508160015f8573ffffffffffffffffffffffffffffffffffffffff1673ffffffffffffffffffffffffffffffffffffffff1681526020019081526020015f205f8282546104f99190610cdf565b925050819055508273ffffffffffffffffffffffffffffffffffffffff168473ffffffffffffffffffffffffffffffffffffffff167fddf252ad1be2c89b69c2b068fc378daa952ba7f163c4a11628f55a4df523b3ef8460405161055d9190610af4565b60405180910390a3600190509392505050565b60065f9054906101000a900460ff1681565b6001602052805f5260405f205f915090505481565b60035f9054906101000a900473ffffffffffffffffffffffffffffffffffffffff1681565b600580546105c990610c4f565b80601f01602080910402602001604051908101604052809291908181526020018280546105f590610c4f565b80156106405780601f1061061757610100808354040283529160200191610640565b820191905f5260205f20905b81548152906001019060200180831161062357829003601f168201915b505050505081565b5f8160015f3373ffffffffffffffffffffffffffffffffffffffff1673ffffffffffffffffffffffffffffffffffffffff1681526020019081526020015f205f8282546106959190610cac565b925050819055508160015f8573ffffffffffffffffffffffffffffffffffffffff1673ffffffffffffffffffffffffffffffffffffffff1681526020019081526020015f205f8282546106e89190610cdf565b925050819055508273ffffffffffffffffffffffffffffffffffffffff163373ffffffffffffffffffffffffffffffffffffffff167fddf252ad1be2c89b69c2b068fc378daa952ba7f163c4a11628f55a4df523b3ef8460405161074c9190610af4565b60405180910390a36001905092915050565b6002602052815f5260405f20602052805f5260405f205f91509150505481565b60035f9054906101000a900473ffffffffffffffffffffffffffffffffffffffff1673ffffffffffffffffffffffffffffffffffffffff163373ffffffffffffffffffffffffffffffffffffffff161461080d576040517f08c379a000000000000000000000000000000000000000000000000000000000815260040161080490610d82565b60405180910390fd5b5f73ffffffffffffffffffffffffffffffffffffffff168173ffffffffffffffffffffffffffffffffffffffff160361087b576040517f08c379a000000000000000000000000000000000000000000000000000000000815260040161087290610dea565b60405180910390fd5b8073ffffffffffffffffffffffffffffffffffffffff1660035f9054906101000a900473ffffffffffffffffffffffffffffffffffffffff1673ffffffffffffffffffffffffffffffffffffffff167f8be0079c531659141344cd1fd0a4f28419497f9722a3daafe3b4186f6b6457e060405160405180910390a38060035f6101000a81548173ffffffffffffffffffffffffffffffffffffffff021916908373ffffffffffffffffffffffffffffffffffffffff16021790555050565b5f81519050919050565b5f82825260208201905092915050565b5f5b83811015610970578082015181840152602081019050610955565b5f8484015250505050565b5f601f19601f8301169050919050565b5f61099582610939565b61099f8185610943565b93506109af818560208601610953565b6109b88161097b565b840191505092915050565b5f6020820190508181035f8301526109db818461098b565b905092915050565b5f80fd5b5f73ffffffffffffffffffffffffffffffffffffffff82169050919050565b5f610a10826109e7565b9050919050565b610a2081610a06565b8114610a2a575f80fd5b50565b5f81359050610a3b81610a17565b92915050565b5f819050919050565b610a5381610a41565b8114610a5d575f80fd5b50565b5f81359050610a6e81610a4a565b92915050565b5f8060408385031215610a8a57610a896109e3565b5b5f610a9785828601610a2d565b9250506020610aa885828601610a60565b9150509250929050565b5f8115159050919050565b610ac681610ab2565b82525050565b5f602082019050610adf5f830184610abd565b92915050565b610aee81610a41565b82525050565b5f602082019050610b075f830184610ae5565b92915050565b5f805f60608486031215610b2457610b236109e3565b5b5f610b3186828701610a2d565b9350506020610b4286828701610a2d565b9250506040610b5386828701610a60565b9150509250925092565b5f60ff82169050919050565b610b7281610b5d565b82525050565b5f602082019050610b8b5f830184610b69565b92915050565b5f60208284031215610ba657610ba56109e3565b5b5f610bb384828501610a2d565b91505092915050565b610bc581610a06565b82525050565b5f602082019050610bde5f830184610bbc565b92915050565b5f8060408385031215610bfa57610bf96109e3565b5b5f610c0785828601610a2d565b9250506020610c1885828601610a2d565b9150509250929050565b7f4e487b71000000000000000000000000000000000000000000000000000000005f52602260045260245ffd5b5f6002820490506001821680610c6657607f821691505b602082108103610c7957610c78610c22565b5b50919050565b7f4e487b71000000000000000000000000000000000000000000000000000000005f52601160045260245ffd5b5f610cb682610a41565b9150610cc183610a41565b9250828203905081811115610cd957610cd8610c7f565b5b92915050565b5f610ce982610a41565b9150610cf483610a41565b9250828201905080821115610d0c57610d0b610c7f565b5b92915050565b7f4f6e6c7920746865206f776e65722063616e2063616c6c20746869732066756e5f8201527f6374696f6e000000000000000000000000000000000000000000000000000000602082015250565b5f610d6c602583610943565b9150610d7782610d12565b604082019050919050565b5f6020820190508181035f830152610d9981610d60565b9050919050565b7f4e6577206f776e657220697320746865207a65726f20616464726573730000005f82015250565b5f610dd4601d83610943565b9150610ddf82610da0565b602082019050919050565b5f6020820190508181035f830152610e0181610dc8565b905091905056fea264697066735822122055d6d11e96c13210e952b386708a8692f444fda76503ddb893ab9293caf512b864736f6c63430008180033",
  "linkReferences": {},
  "deployedLinkReferences": {}
}